S01A0000646D61793030345F6C6162335F70617274312E73726563C3
S113000045C000004BC0000049C0000047C00000CC
S113001045C0000043C0000041C000003FC00000D4
S11300203DC000003BC0000039C0000037C00000E4
S113003035C0000033C0000031C000002FC00000F4
S11300402DC000002BC0000029C0000027C0000004
S113005025C0000023C0000021C000001FC0000014
S11300601DC000001BC0000019C0000017C0000024
S113007015C0000013C0000011C000000FC0000034
S11300800DC000000BC0000009C0000011241FBEF9
S1130090CFEFD0E4DEBFCDBF02D046C0B1CF11B8A0
S11300A08FEF82B914B885B987B918B880B170B127
S11300B060B1647050B1587040B1407130B1307269
S11300C020B1207490B19078817071FD8F5F6111BF
S11300D08F5F51118F5F41118F5F31118F5F21113C
S11300E08F5F91118F5FE3B173B1727063B164700C
S11300F053B1587043B1407133B1307223B120749D
S113010093B19078E0FD8F5F71118F5F61118F5F04
S113011051118F5F41118F5F31118F5F21118F5FFB
S10F012091118F5F88B9C2CFF894FFCF13
S9030000FC
